{
  "contractName": "Subscriber",
  "abi": [
    {
      "inputs": [],
      "stateMutability": "nonpayable",
      "type": "constructor"
    },
    {
      "anonymous": false,
      "inputs": [
        {
          "indexed": true,
          "internalType": "address",
          "name": "subscriptionContractAddress",
          "type": "address"
        },
        {
          "indexed": true,
          "internalType": "uint16",
          "name": "id",
          "type": "uint16"
        }
      ],
      "name": "NewSubscription",
      "type": "event"
    },
    {
      "anonymous": false,
      "inputs": [
        {
          "indexed": false,
          "internalType": "uint256",
          "name": "sellTime",
          "type": "uint256"
        }
      ],
      "name": "newAccountOwner",
      "type": "event"
    },
    {
      "inputs": [
        {
          "internalType": "address",
          "name": "subAddr",
          "type": "address"
        },
        {
          "internalType": "uint16",
          "name": "id",
          "type": "uint16"
        },
        {
          "internalType": "uint256",
          "name": "amount",
          "type": "uint256"
        }
      ],
      "name": "buySubscription",
      "outputs": [],
      "stateMutability": "payable",
      "type": "function"
    },
    {
      "inputs": [
        {
          "internalType": "uint256",
          "name": "price",
          "type": "uint256"
        }
      ],
      "name": "sellAccount",
      "outputs": [],
      "stateMutability": "nonpayable",
      "type": "function"
    },
    {
      "inputs": [],
      "name": "buyAccount",
      "outputs": [],
      "stateMutability": "payable",
      "type": "function"
    },
    {
      "inputs": [],
      "name": "abortSellAccount",
      "outputs": [],
      "stateMutability": "nonpayable",
      "type": "function"
    },
    {
      "inputs": [
        {
          "internalType": "address",
          "name": "subAddr",
          "type": "address"
        },
        {
          "internalType": "uint16",
          "name": "id",
          "type": "uint16"
        },
        {
          "internalType": "uint256",
          "name": "price",
          "type": "uint256"
        }
      ],
      "name": "sellSubscription",
      "outputs": [],
      "stateMutability": "nonpayable",
      "type": "function"
    },
    {
      "inputs": [
        {
          "internalType": "address",
          "name": "subAddr",
          "type": "address"
        },
        {
          "internalType": "uint16",
          "name": "id",
          "type": "uint16"
        }
      ],
      "name": "abortSellSubscription",
      "outputs": [],
      "stateMutability": "nonpayable",
      "type": "function"
    },
    {
      "inputs": [
        {
          "internalType": "address",
          "name": "subAddr",
          "type": "address"
        },
        {
          "internalType": "uint16",
          "name": "id",
          "type": "uint16"
        }
      ],
      "name": "buySubscriptionFromMe",
      "outputs": [],
      "stateMutability": "payable",
      "type": "function"
    },
    {
      "inputs": [
        {
          "internalType": "address",
          "name": "selllerContract",
          "type": "address"
        },
        {
          "internalType": "address",
          "name": "subAddr",
          "type": "address"
        },
        {
          "internalType": "uint16",
          "name": "id",
          "type": "uint16"
        },
        {
          "internalType": "uint256",
          "name": "amount",
          "type": "uint256"
        }
      ],
      "name": "buySubscriptionFromContract",
      "outputs": [],
      "stateMutability": "payable",
      "type": "function"
    },
    {
      "inputs": [],
      "name": "getSubscriptionsCount",
      "outputs": [
        {
          "internalType": "uint16",
          "name": "",
          "type": "uint16"
        }
      ],
      "stateMutability": "view",
      "type": "function"
    },
    {
      "inputs": [
        {
          "internalType": "address",
          "name": "subAddr",
          "type": "address"
        },
        {
          "internalType": "uint16",
          "name": "id",
          "type": "uint16"
        }
      ],
      "name": "isSubscriptionBuy",
      "outputs": [
        {
          "internalType": "bool",
          "name": "",
          "type": "bool"
        }
      ],
      "stateMutability": "view",
      "type": "function"
    },
    {
      "inputs": [],
      "name": "getAccountSellPrice",
      "outputs": [
        {
          "internalType": "uint256",
          "name": "",
          "type": "uint256"
        }
      ],
      "stateMutability": "view",
      "type": "function"
    },
    {
      "inputs": [],
      "name": "getIsAccountSell",
      "outputs": [
        {
          "internalType": "bool",
          "name": "",
          "type": "bool"
        }
      ],
      "stateMutability": "view",
      "type": "function"
    },
    {
      "inputs": [
        {
          "internalType": "address",
          "name": "subAddr",
          "type": "address"
        },
        {
          "internalType": "uint16",
          "name": "id",
          "type": "uint16"
        }
      ],
      "name": "getSubscriptionForSellPrice",
      "outputs": [
        {
          "internalType": "uint256",
          "name": "",
          "type": "uint256"
        }
      ],
      "stateMutability": "view",
      "type": "function"
    },
    {
      "inputs": [],
      "name": "getSubscriptionsForSellCount",
      "outputs": [
        {
          "internalType": "uint16",
          "name": "",
          "type": "uint16"
        }
      ],
      "stateMutability": "view",
      "type": "function"
    }
  ],
  "bytecode": "0x608060405234801561001057600080fd5b50336000806101000a81548173ffffffffffffffffffffffffffffffffffffffff021916908373ffffffffffffffffffffffffffffffffffffffff16021790555060008060146101000a81548161ffff021916908361ffff160217905550600060018190555060008060186101000a81548160ff0219169083151502179055506116a88061009f6000396000f3fe6080604052600436106100dd5760003560e01c8063a14a79ef1161007f578063d3ea3e4f11610059578063d3ea3e4f146103fa578063e7f899e914610429578063ec59531214610464578063fcb42be9146104c3576100dd565b8063a14a79ef146102e7578063bf002d4414610350578063c992edd6146103c7576100dd565b80634413a7c5116100bb5780634413a7c5146101735780634fd15508146101a65780638939c696146101f85780639d22952b1461026b576100dd565b80630986b56f146100e2578063231241cb1461010d5780633728518e14610117575b600080fd5b3480156100ee57600080fd5b506100f76104da565b6040518082815260200191505060405180910390f35b6101156104e4565b005b6101716004803603606081101561012d57600080fd5b81019080803573ffffffffffffffffffffffffffffffffffffffff169060200190929190803561ffff169060200190929190803590602001909291905050506106c3565b005b34801561017f57600080fd5b506101886109c1565b604051808261ffff1661ffff16815260200191505060405180910390f35b6101f6600480360360408110156101bc57600080fd5b81019080803573ffffffffffffffffffffffffffffffffffffffff169060200190929190803561ffff1690602001909291905050506109d8565b005b34801561020457600080fd5b506102556004803603604081101561021b57600080fd5b81019080803573ffffffffffffffffffffffffffffffffffffffff169060200190929190803561ffff169060200190929190505050610ccf565b6040518082815260200191505060405180910390f35b6102e56004803603608081101561028157600080fd5b81019080803573ffffffffffffffffffffffffffffffffffffffff169060200190929190803573ffffffffffffffffffffffffffffffffffffffff169060200190929190803561ffff16906020019092919080359060200190929190505050610e14565b005b3480156102f357600080fd5b5061034e6004803603606081101561030a57600080fd5b81019080803573ffffffffffffffffffffffffffffffffffffffff169060200190929190803561ffff16906020019092919080359060200190929190505050611026565b005b34801561035c57600080fd5b506103ad6004803603604081101561037357600080fd5b81019080803573ffffffffffffffffffffffffffffffffffffffff169060200190929190803561ffff1690602001909291905050506111bb565b604051808215151515815260200191505060405180910390f35b3480156103d357600080fd5b506103dc61122b565b604051808261ffff1661ffff16815260200191505060405180910390f35b34801561040657600080fd5b5061040f611242565b604051808215151515815260200191505060405180910390f35b34801561043557600080fd5b506104626004803603602081101561044c57600080fd5b8101908080359060200190929190505050611258565b005b34801561047057600080fd5b506104c16004803603604081101561048757600080fd5b81019080803573ffffffffffffffffffffffffffffffffffffffff169060200190929190803561ffff16906020019092919050505061133f565b005b3480156104cf57600080fd5b506104d861158c565b005b6000600154905090565b6001548034101561055d576040517f08c379a00000000000000000000000000000000000000000000000000000000081526004018080602001828103825260128152602001807f4e6f7420656e6f7567687420616d6f756e74000000000000000000000000000081525060200191505060405180910390fd5b600060189054906101000a900460ff166105df576040517f08c379a00000000000000000000000000000000000000000000000000000000081526004018080602001828103825260108152602001807f4163636f756e74206e6f742073656c6c0000000000000000000000000000000081525060200191505060405180910390fd5b6000809054906101000a900473ffffffffffffffffffffffffffffffffffffffff1673ffffffffffffffffffffffffffffffffffffffff166108fc6001549081150290604051600060405180830381858888f19350505050158015610648573d6000803e3d6000fd5b50336000806101000a81548173ffffffffffffffffffffffffffffffffffffffff021916908373ffffffffffffffffffffffffffffffffffffffff1602179055507fe7b97f4f1cc1ebd1caaba2f6370070582735921c259e2bfb45627661c41256b8426040518082815260200191505060405180910390a150565b6000809054906101000a900473ffffffffffffffffffffffffffffffffffffffff1673ffffffffffffffffffffffffffffffffffffffff163373ffffffffffffffffffffffffffffffffffffffff1614610785576040517f08c379a00000000000000000000000000000000000000000000000000000000081526004018080602001828103825260158152602001807f4e656564206f776e6572207065726d697373696f6e000000000000000000000081525060200191505060405180910390fd5b600260008473ffffffffffffffffffffffffffffffffffffffff1673ffffffffffffffffffffffffffffffffffffffff16815260200190815260200160002060008361ffff1661ffff16815260200190815260200160002060009054906101000a900460ff161561085e576040517f08c379a000000000000000000000000000000000000000000000000000000000815260040180806020018281038252600d8152602001807f416c72656164792062757965640000000000000000000000000000000000000081525060200191505060405180910390fd5b8273ffffffffffffffffffffffffffffffffffffffff1663fe2b7bd182846040518363ffffffff1660e01b8152600401808261ffff1661ffff1681526020019150506000604051808303818588803b1580156108b957600080fd5b505af11580156108cd573d6000803e3d6000fd5b50505050506001600260003373ffffffffffffffffffffffffffffffffffffffff1673ffffffffffffffffffffffffffffffffffffffff16815260200190815260200160002060008461ffff1661ffff16815260200190815260200160002060006101000a81548160ff0219169083151502179055506001600060148282829054906101000a900461ffff160192506101000a81548161ffff021916908361ffff1602179055508161ffff163373ffffffffffffffffffffffffffffffffffffffff167f4af8f13c457b0ea63941b8634a5f7ed3ff4e176294da3a8f546d74640ce1ebd760405160405180910390a3505050565b60008060149054906101000a900461ffff16905090565b600360008373ffffffffffffffffffffffffffffffffffffffff1673ffffffffffffffffffffffffffffffffffffffff16815260200190815260200160002060008261ffff1661ffff1681526020019081526020016000206000015480341015610aaa576040517f08c379a00000000000000000000000000000000000000000000000000000000081526004018080602001828103825260128152602001807f4e6f7420656e6f7567687420616d6f756e74000000000000000000000000000081525060200191505060405180910390fd5b8282600360008373ffffffffffffffffffffffffffffffffffffffff1673ffffffffffffffffffffffffffffffffffffffff16815260200190815260200160002060008261ffff1661ffff16815260200190815260200160002060010160009054906101000a900460ff16610b87576040517f08c379a00000000000000000000000000000000000000000000000000000000081526004018080602001828103825260158152602001807f537562736372697074696f6e206e6f742073656c6c000000000000000000000081525060200191505060405180910390fd5b600360008673ffffffffffffffffffffffffffffffffffffffff1673ffffffffffffffffffffffffffffffffffffffff16815260200190815260200160002060008561ffff1661ffff1681526020019081526020016000206000808201600090556001820160006101000a81549060ff02191690555050600260008673ffffffffffffffffffffffffffffffffffffffff1673ffffffffffffffffffffffffffffffffffffffff16815260200190815260200160002060008561ffff1661ffff16815260200190815260200160002060006101000a81549060ff02191690556001600060168282829054906101000a900461ffff160392506101000a81548161ffff021916908361ffff1602179055506001600060148282829054906101000a900461ffff160392506101000a81548161ffff021916908361ffff1602179055505050505050565b60008282600360008373ffffffffffffffffffffffffffffffffffffffff1673ffffffffffffffffffffffffffffffffffffffff16815260200190815260200160002060008261ffff1661ffff16815260200190815260200160002060010160009054906101000a900460ff16610dae576040517f08c379a00000000000000000000000000000000000000000000000000000000081526004018080602001828103825260158152602001807f537562736372697074696f6e206e6f742073656c6c000000000000000000000081525060200191505060405180910390fd5b600360008673ffffffffffffffffffffffffffffffffffffffff1673ffffffffffffffffffffffffffffffffffffffff16815260200190815260200160002060008561ffff1661ffff168152602001908152602001600020600001549250505092915050565b6000809054906101000a900473ffffffffffffffffffffffffffffffffffffffff1673ffffffffffffffffffffffffffffffffffffffff163373ffffffffffffffffffffffffffffffffffffffff1614610ed6576040517f08c379a00000000000000000000000000000000000000000000000000000000081526004018080602001828103825260158152602001807f4e656564206f776e6572207065726d697373696f6e000000000000000000000081525060200191505060405180910390fd5b8373ffffffffffffffffffffffffffffffffffffffff16634fd155088285856040518463ffffffff1660e01b8152600401808373ffffffffffffffffffffffffffffffffffffffff1673ffffffffffffffffffffffffffffffffffffffff1681526020018261ffff1661ffff168152602001925050506000604051808303818588803b158015610f6557600080fd5b505af1158015610f79573d6000803e3d6000fd5b50505050506001600260008573ffffffffffffffffffffffffffffffffffffffff1673ffffffffffffffffffffffffffffffffffffffff16815260200190815260200160002060008461ffff1661ffff16815260200190815260200160002060006101000a81548160ff0219169083151502179055506001600060148282829054906101000a900461ffff160192506101000a81548161ffff021916908361ffff16021790555050505050565b6000809054906101000a900473ffffffffffffffffffffffffffffffffffffffff1673ffffffffffffffffffffffffffffffffffffffff163373ffffffffffffffffffffffffffffffffffffffff16146110e8576040517f08c379a00000000000000000000000000000000000000000000000000000000081526004018080602001828103825260158152602001807f4e656564206f776e6572207065726d697373696f6e000000000000000000000081525060200191505060405180910390fd5b604051806040016040528082815260200160011515815250600360008573ffffffffffffffffffffffffffffffffffffffff1673ffffffffffffffffffffffffffffffffffffffff16815260200190815260200160002060008461ffff1661ffff1681526020019081526020016000206000820151816000015560208201518160010160006101000a81548160ff0219169083151502179055509050506001600060168282829054906101000a900461ffff160192506101000a81548161ffff021916908361ffff160217905550505050565b6000600260008473ffffffffffffffffffffffffffffffffffffffff1673ffffffffffffffffffffffffffffffffffffffff16815260200190815260200160002060008361ffff1661ffff16815260200190815260200160002060009054906101000a900460ff16905092915050565b60008060169054906101000a900461ffff16905090565b60008060189054906101000a900460ff16905090565b6000809054906101000a900473ffffffffffffffffffffffffffffffffffffffff1673ffffffffffffffffffffffffffffffffffffffff163373ffffffffffffffffffffffffffffffffffffffff161461131a576040517f08c379a00000000000000000000000000000000000000000000000000000000081526004018080602001828103825260158152602001807f4e656564206f776e6572207065726d697373696f6e000000000000000000000081525060200191505060405180910390fd5b806001819055506001600060186101000a81548160ff02191690831515021790555050565b6000809054906101000a900473ffffffffffffffffffffffffffffffffffffffff1673ffffffffffffffffffffffffffffffffffffffff163373ffffffffffffffffffffffffffffffffffffffff1614611401576040517f08c379a00000000000000000000000000000000000000000000000000000000081526004018080602001828103825260158152602001807f4e656564206f776e6572207065726d697373696f6e000000000000000000000081525060200191505060405180910390fd5b8181600360008373ffffffffffffffffffffffffffffffffffffffff1673ffffffffffffffffffffffffffffffffffffffff16815260200190815260200160002060008261ffff1661ffff16815260200190815260200160002060010160009054906101000a900460ff166114de576040517f08c379a00000000000000000000000000000000000000000000000000000000081526004018080602001828103825260158152602001807f537562736372697074696f6e206e6f742073656c6c000000000000000000000081525060200191505060405180910390fd5b600360008573ffffffffffffffffffffffffffffffffffffffff1673ffffffffffffffffffffffffffffffffffffffff16815260200190815260200160002060008461ffff1661ffff1681526020019081526020016000206000808201600090556001820160006101000a81549060ff021916905550506001600060168282829054906101000a900461ffff160392506101000a81548161ffff021916908361ffff16021790555050505050565b6000809054906101000a900473ffffffffffffffffffffffffffffffffffffffff1673ffffffffffffffffffffffffffffffffffffffff163373ffffffffffffffffffffffffffffffffffffffff161461164e576040517f08c379a00000000000000000000000000000000000000000000000000000000081526004018080602001828103825260158152602001807f4e656564206f776e6572207065726d697373696f6e000000000000000000000081525060200191505060405180910390fd5b600060018190555060008060186101000a81548160ff02191690831515021790555056fea26469706673582212209ba0a65096876e49d6b15993118d5d565665db23e744c4055923ab7e970e147d64736f6c63430006030033",
  "source": "pragma solidity ^0.6.3;\n\nimport \"./Subscription.sol\";\n\n\ncontract Subscriber {\n\n    modifier onlyOwner() {\n        require(msg.sender == owner, \"Need owner permission\");\n        _;\n    }\n\n    modifier requireAmount(uint256 amount) {\n        require(msg.value >= amount, \"Not enought amount\");\n        _;\n    }\n\n    modifier isSubSell(address subAddr, uint16 id) {\n        require(subsForSell[subAddr][id].isSell, \"Subscription not sell\");\n        _;\n    }\n\n    struct SellingSub {\n        uint256 price;\n        bool isSell;\n    }\n\n    event NewSubscription(\n        address indexed subscriptionContractAddress,\n        uint16 indexed id\n    );\n\n    event newAccountOwner(\n        uint256 sellTime\n    );\n\n    address private owner;\n    uint16 private subsCount;\n    uint16 private sellingSubsCount;\n    bool private isAccountSell;\n    uint256 private accountSellPrice;\n    mapping(address => mapping(uint16 => bool)) private subscriptions;\n    mapping(address => mapping(uint16 => SellingSub)) private subsForSell;\n\n\n    constructor() public {\n        owner = msg.sender;\n        subsCount = 0;\n        accountSellPrice = 0;\n        isAccountSell = false;\n    }\n\n    function buySubscription(address subAddr, uint16 id, uint256 amount) onlyOwner payable external {\n        require(!subscriptions[subAddr][id], \"Already buyed\");\n        Subscription(subAddr).subscribe.value(amount)(id);\n        subscriptions[msg.sender][id] = true;\n        subsCount += 1;\n        emit NewSubscription(msg.sender, id);\n    }\n\n    function sellAccount(uint256 price) external onlyOwner {\n        accountSellPrice = price;\n        isAccountSell = true;\n    }\n\n    function buyAccount() external payable requireAmount(accountSellPrice) {\n        require(isAccountSell, \"Account not sell\");\n        address(uint160(owner)).transfer(accountSellPrice);\n        owner = msg.sender;\n        emit newAccountOwner(now);\n    }\n\n    function abortSellAccount() external onlyOwner {\n        accountSellPrice = 0;\n        isAccountSell = false;\n    }\n\n    function sellSubscription(address subAddr, uint16 id, uint256 price) external onlyOwner{\n        subsForSell[subAddr][id] = SellingSub(price, true);\n        sellingSubsCount += 1;\n    }\n\n    function abortSellSubscription(address subAddr, uint16 id)\n    external onlyOwner isSubSell(subAddr, id) {\n\n        delete subsForSell[subAddr][id];\n        sellingSubsCount -= 1;\n    }\n\n    function buySubscriptionFromMe(address subAddr, uint16 id)\n    external payable requireAmount(subsForSell[subAddr][id].price) isSubSell(subAddr, id) {\n\n        delete subsForSell[subAddr][id];\n        delete subscriptions[subAddr][id];\n        sellingSubsCount -= 1;\n        subsCount -= 1;\n    }\n\n    function buySubscriptionFromContract(address selllerContract,\n      address subAddr,\n      uint16 id,\n      uint256 amount) external payable onlyOwner {\n\n        Subscriber(selllerContract).buySubscriptionFromMe.value(amount)(subAddr, id);\n        subscriptions[subAddr][id] = true;\n        subsCount += 1;\n    }\n    \n\n    function getSubscriptionsCount() external view returns(uint16)  {\n        return subsCount;\n    }\n\n    function isSubscriptionBuy(address subAddr, uint16 id) external view returns(bool)  {\n        return subscriptions[subAddr][id];\n    }\n\n    function getAccountSellPrice() external view returns(uint256)  {\n        return accountSellPrice;\n    }\n\n    function getIsAccountSell() external view returns(bool)  {\n        return isAccountSell;\n    }\n\n    function getSubscriptionForSellPrice(address subAddr, uint16 id)\n    external view isSubSell(subAddr, id) returns(uint256) {\n\n        return subsForSell[subAddr][id].price;\n    }\n\n    function getSubscriptionsForSellCount() external view returns(uint16)  {\n        return sellingSubsCount;\n    }\n}\n",
  "sourcePath": "/home/vladislav/Projects/BlockchainProjects/Subscription/contracts/Subscriber.sol",
  "compiler": {
    "name": "solc",
    "version": "0.6.3+commit.8dda9521.Emscripten.clang"
  },
  "schemaVersion": "3.0.23",
  "updatedAt": "2020-03-03T08:16:13.632Z",
  "devdoc": {
    "methods": {}
  },
  "userdoc": {
    "methods": {}
  }
}