{
  "contractName": "Subscription",
  "abi": [
    {
      "inputs": [
        {
          "internalType": "uint16[]",
          "name": "ids",
          "type": "uint16[]"
        },
        {
          "internalType": "uint256[]",
          "name": "prices",
          "type": "uint256[]"
        }
      ],
      "stateMutability": "nonpayable",
      "type": "constructor"
    },
    {
      "anonymous": false,
      "inputs": [
        {
          "indexed": true,
          "internalType": "uint16",
          "name": "id",
          "type": "uint16"
        },
        {
          "indexed": false,
          "internalType": "uint256",
          "name": "price",
          "type": "uint256"
        }
      ],
      "name": "NewSubscription",
      "type": "event"
    },
    {
      "anonymous": false,
      "inputs": [
        {
          "indexed": true,
          "internalType": "uint16",
          "name": "id",
          "type": "uint16"
        }
      ],
      "name": "RemoveSubscription",
      "type": "event"
    },
    {
      "anonymous": false,
      "inputs": [
        {
          "indexed": true,
          "internalType": "uint16",
          "name": "id",
          "type": "uint16"
        },
        {
          "indexed": false,
          "internalType": "uint256",
          "name": "oldPrice",
          "type": "uint256"
        },
        {
          "indexed": false,
          "internalType": "uint256",
          "name": "price",
          "type": "uint256"
        }
      ],
      "name": "UpdateSubscription",
      "type": "event"
    },
    {
      "inputs": [
        {
          "internalType": "uint16",
          "name": "id",
          "type": "uint16"
        }
      ],
      "name": "subscribe",
      "outputs": [],
      "stateMutability": "payable",
      "type": "function"
    },
    {
      "inputs": [
        {
          "internalType": "uint16",
          "name": "id",
          "type": "uint16"
        },
        {
          "internalType": "uint256",
          "name": "price",
          "type": "uint256"
        }
      ],
      "name": "addSubscription",
      "outputs": [
        {
          "internalType": "uint16",
          "name": "",
          "type": "uint16"
        }
      ],
      "stateMutability": "nonpayable",
      "type": "function"
    },
    {
      "inputs": [
        {
          "internalType": "uint16",
          "name": "id",
          "type": "uint16"
        },
        {
          "internalType": "uint256",
          "name": "price",
          "type": "uint256"
        }
      ],
      "name": "updateSubscription",
      "outputs": [
        {
          "internalType": "uint16",
          "name": "",
          "type": "uint16"
        }
      ],
      "stateMutability": "nonpayable",
      "type": "function"
    },
    {
      "inputs": [
        {
          "internalType": "uint16",
          "name": "id",
          "type": "uint16"
        }
      ],
      "name": "removeSubscription",
      "outputs": [],
      "stateMutability": "nonpayable",
      "type": "function"
    },
    {
      "inputs": [],
      "name": "getSubscriptionsCount",
      "outputs": [
        {
          "internalType": "uint16",
          "name": "",
          "type": "uint16"
        }
      ],
      "stateMutability": "view",
      "type": "function"
    },
    {
      "inputs": [
        {
          "internalType": "uint16",
          "name": "id",
          "type": "uint16"
        }
      ],
      "name": "getSubscriptionPrice",
      "outputs": [
        {
          "internalType": "uint256",
          "name": "",
          "type": "uint256"
        }
      ],
      "stateMutability": "view",
      "type": "function"
    }
  ],
  "bytecode": "0x608060405234801561001057600080fd5b50604051610dd9380380610dd98339818101604052604081101561003357600080fd5b810190808051604051939291908464010000000082111561005357600080fd5b8382019150602082018581111561006957600080fd5b825186602082028301116401000000008211171561008657600080fd5b8083526020830192505050908051906020019060200280838360005b838110156100bd5780820151818401526020810190506100a2565b50505050905001604052602001805160405193929190846401000000008211156100e657600080fd5b838201915060208201858111156100fc57600080fd5b825186602082028301116401000000008211171561011957600080fd5b8083526020830192505050908051906020019060200280838360005b83811015610150578082015181840152602081019050610135565b5050505090500160405250505080518251146101b7576040517f08c379a0000000000000000000000000000000000000000000000000000000008152600401808060200182810382526038815260200180610da16038913960400191505060405180910390fd5b60005b82518161ffff161015610262576040518060400160405280838361ffff16815181106101e257fe5b602002602001015181526020016001151581525060016000858461ffff168151811061020a57fe5b602002602001015161ffff1661ffff1681526020019081526020016000206000820151816000015560208201518160010160006101000a81548160ff02191690831515021790555090505080806001019150506101ba565b508151600060146101000a81548161ffff021916908361ffff160217905550336000806101000a81548173ffffffffffffffffffffffffffffffffffffffff021916908373ffffffffffffffffffffffffffffffffffffffff1602179055505050610acf806102d26000396000f3fe6080604052600436106100555760003560e01c80632be7fce61461005a5780634413a7c5146100bf578063564e54c9146100f2578063e34e024714610157578063ef57a3c0146101aa578063fe2b7bd1146101e9575b600080fd5b34801561006657600080fd5b506100a16004803603604081101561007d57600080fd5b81019080803561ffff1690602001909291908035906020019092919050505061021b565b604051808261ffff1661ffff16815260200191505060405180910390f35b3480156100cb57600080fd5b506100d4610450565b604051808261ffff1661ffff16815260200191505060405180910390f35b3480156100fe57600080fd5b506101396004803603604081101561011557600080fd5b81019080803561ffff16906020019092919080359060200190929190505050610467565b604051808261ffff1661ffff16815260200191505060405180910390f35b34801561016357600080fd5b506101946004803603602081101561017a57600080fd5b81019080803561ffff169060200190929190505050610699565b6040518082815260200191505060405180910390f35b3480156101b657600080fd5b506101e7600480360360208110156101cd57600080fd5b81019080803561ffff169060200190929190505050610761565b005b610219600480360360208110156101ff57600080fd5b81019080803561ffff169060200190929190505050610962565b005b60008060009054906101000a900473ffffffffffffffffffffffffffffffffffffffff1673ffffffffffffffffffffffffffffffffffffffff163373ffffffffffffffffffffffffffffffffffffffff16146102df576040517f08c379a00000000000000000000000000000000000000000000000000000000081526004018080602001828103825260158152602001807f4e656564206f776e6572207065726d697373696f6e000000000000000000000081525060200191505060405180910390fd5b600160008461ffff1661ffff16815260200190815260200160002060010160009054906101000a900460ff161561037e576040517f08c379a000000000000000000000000000000000000000000000000000000000815260040180806020018281038252601a8152602001807f537562736372697074696f6e20616c726561647920616464656400000000000081525060200191505060405180910390fd5b604051806040016040528083815260200160011515815250600160008561ffff1661ffff1681526020019081526020016000206000820151816000015560208201518160010160006101000a81548160ff0219169083151502179055509050506001600060148282829054906101000a900461ffff160192506101000a81548161ffff021916908361ffff1602179055508261ffff167e23ced510ecdb04cd8a5ceb8b71019957cc1be442bff2a397b032f799cd0f9b836040518082815260200191505060405180910390a292915050565b60008060149054906101000a900461ffff16905090565b60008060009054906101000a900473ffffffffffffffffffffffffffffffffffffffff1673ffffffffffffffffffffffffffffffffffffffff163373ffffffffffffffffffffffffffffffffffffffff161461052b576040517f08c379a00000000000000000000000000000000000000000000000000000000081526004018080602001828103825260158152602001807f4e656564206f776e6572207065726d697373696f6e000000000000000000000081525060200191505060405180910390fd5b82600160008261ffff1661ffff16815260200190815260200160002060010160009054906101000a900460ff166105ca576040517f08c379a00000000000000000000000000000000000000000000000000000000081526004018080602001828103825260168152602001807f537562736372697074696f6e206e6f742065786973740000000000000000000081525060200191505060405180910390fd5b6000600160008661ffff1661ffff168152602001908152602001600020600001549050604051806040016040528085815260200160011515815250600160008761ffff1661ffff1681526020019081526020016000206000820151816000015560208201518160010160006101000a81548160ff0219169083151502179055509050508461ffff167f95ed8941ca91ed340aabc4222262ae244883d755203671d7a19d2e70a63af6e88286604051808381526020018281526020019250505060405180910390a2505092915050565b600081600160008261ffff1661ffff16815260200190815260200160002060010160009054906101000a900460ff1661073a576040517f08c379a00000000000000000000000000000000000000000000000000000000081526004018080602001828103825260168152602001807f537562736372697074696f6e206e6f742065786973740000000000000000000081525060200191505060405180910390fd5b600160008461ffff1661ffff16815260200190815260200160002060000154915050919050565b6000809054906101000a900473ffffffffffffffffffffffffffffffffffffffff1673ffffffffffffffffffffffffffffffffffffffff163373ffffffffffffffffffffffffffffffffffffffff1614610823576040517f08c379a00000000000000000000000000000000000000000000000000000000081526004018080602001828103825260158152602001807f4e656564206f776e6572207065726d697373696f6e000000000000000000000081525060200191505060405180910390fd5b80600160008261ffff1661ffff16815260200190815260200160002060010160009054906101000a900460ff166108c2576040517f08c379a00000000000000000000000000000000000000000000000000000000081526004018080602001828103825260168152602001807f537562736372697074696f6e206e6f742065786973740000000000000000000081525060200191505060405180910390fd5b600160008361ffff1661ffff1681526020019081526020016000206000808201600090556001820160006101000a81549060ff021916905550506001600060148282829054906101000a900461ffff160392506101000a81548161ffff021916908361ffff1602179055508161ffff167f70a33938285589a2e87e1b35e9fb65a485454d39e82e8ef0f058cad4badb197e60405160405180910390a25050565b80600160008261ffff1661ffff16815260200190815260200160002060010160009054906101000a900460ff16610a01576040517f08c379a00000000000000000000000000000000000000000000000000000000081526004018080602001828103825260168152602001807f537562736372697074696f6e206e6f742065786973740000000000000000000081525060200191505060405180910390fd5b600160008361ffff1661ffff16815260200190815260200160002060000154341015610a95576040517f08c379a00000000000000000000000000000000000000000000000000000000081526004018080602001828103825260128152602001807f4e6f7420656e6f7567687420616d6f756e74000000000000000000000000000081525060200191505060405180910390fd5b505056fea26469706673582212205eeb8f458ac39b729c021286f3c3559a81b5a77178bc34c3012745f907648bd264736f6c63430006030033496e76616c696420696e70757420646174612c2069647320616e6420707269636573206d75737420686176652073616d65206c656e677468",
  "source": "pragma solidity ^0.6.3;\n\ncontract Subscription {\n\n    modifier onlyOwner() {\n        require(msg.sender == owner, \"Need owner permission\");\n        _;\n    }\n\n    modifier isSubExists(uint16 id) {\n        require(subscriptions[id].isExist, \"Subscription not exist\");\n        _;\n    }\n\n    struct SubPrice {\n        uint256 price;\n        bool isExist;\n    }\n\n    event NewSubscription(\n        uint16 indexed id,\n        uint256 price\n    );\n\n    event UpdateSubscription(\n        uint16 indexed id,\n        uint256 oldPrice,\n        uint256 price\n    );\n\n    event RemoveSubscription(\n        uint16 indexed id\n    );\n\n    address private owner;\n    uint16 private subsCount;\n    mapping(uint16 => SubPrice) private subscriptions;\n\n\n    constructor(uint16[] memory ids, uint256[] memory prices) public {\n        require(ids.length == prices.length, \"Invalid input data, ids and prices must have same length\");\n        for (uint16 i; i<ids.length; i++) {\n            subscriptions[ids[i]] = SubPrice(prices[i], true);\n        }\n        subsCount = uint16(ids.length);\n        owner = msg.sender;\n    }\n\n    function subscribe(uint16 id) external payable isSubExists(id) {\n        require(msg.value >= subscriptions[id].price, \"Not enought amount\");\n    }\n\n    function addSubscription(uint16 id, uint256 price) external onlyOwner returns(uint16) {\n        require(!subscriptions[id].isExist, \"Subscription already added\");\n        subscriptions[id] = SubPrice(price, true);\n        subsCount += 1;\n        emit NewSubscription(id, price);\n    }\n\n    function updateSubscription(uint16 id, uint256 price) external onlyOwner isSubExists(id) returns(uint16) {\n        uint256 oldPrice = subscriptions[id].price;\n        subscriptions[id] = SubPrice(price, true);\n        emit UpdateSubscription(id, oldPrice, price);\n    }\n\n    function removeSubscription(uint16 id) external onlyOwner isSubExists(id) {\n        delete subscriptions[id];\n        subsCount -= 1;\n        emit RemoveSubscription(id);\n    }\n    \n\n    function getSubscriptionsCount() public view returns(uint16) {\n        return subsCount;\n    }\n\n    function getSubscriptionPrice(uint16 id) public view isSubExists(id) returns(uint256) {\n        return subscriptions[id].price;\n    }\n}\n",
  "sourcePath": "/home/vladislav/Projects/BlockchainProjects/Subscription/contracts/Subscription.sol",
  "compiler": {
    "name": "solc",
    "version": "0.6.3+commit.8dda9521.Emscripten.clang"
  },
  "schemaVersion": "3.0.23",
  "updatedAt": "2020-03-03T08:16:13.648Z",
  "devdoc": {
    "methods": {}
  },
  "userdoc": {
    "methods": {}
  }
}